{"contracts/CourseMarketplace.sol":{"CourseMarketplace":{"abi":[{"inputs":[],"stateMutability":"nonpayable","type":"constructor"},{"inputs":[],"name":"CourseHasOwner","type":"error"},{"inputs":[],"name":"CourseIsNotCreated","type":"error"},{"inputs":[],"name":"InvalidState","type":"error"},{"inputs":[],"name":"OnlyOwner","type":"error"},{"inputs":[],"name":"SenderIsNotCourseOwner","type":"error"},{"inputs":[{"internalType":"bytes32","name":"courseHash","type":"bytes32"}],"name":"activateCourse","outputs":[],"stateMutability":"nonpayable","type":"function"},{"inputs":[{"internalType":"bytes32","name":"courseHash","type":"bytes32"}],"name":"deactivateCourse","outputs":[],"stateMutability":"nonpayable","type":"function"},{"inputs":[],"name":"getContractOwner","outputs":[{"internalType":"address","name":"","type":"address"}],"stateMutability":"view","type":"function"},{"inputs":[{"internalType":"bytes32","name":"courseHash","type":"bytes32"}],"name":"getCourseByHash","outputs":[{"components":[{"internalType":"uint256","name":"id","type":"uint256"},{"internalType":"uint256","name":"price","type":"uint256"},{"internalType":"bytes32","name":"proof","type":"bytes32"},{"internalType":"address","name":"owner","type":"address"},{"internalType":"enum CourseMarketplace.State","name":"state","type":"uint8"}],"internalType":"struct CourseMarketplace.Course","name":"","type":"tuple"}],"stateMutability":"view","type":"function"},{"inputs":[],"name":"getCourseCount","outputs":[{"internalType":"uint256","name":"","type":"uint256"}],"stateMutability":"view","type":"function"},{"inputs":[{"internalType":"uint256","name":"index","type":"uint256"}],"name":"getCourseHashAtIndex","outputs":[{"internalType":"bytes32","name":"","type":"bytes32"}],"stateMutability":"view","type":"function"},{"inputs":[{"internalType":"bytes16","name":"courseId","type":"bytes16"},{"internalType":"bytes32","name":"proof","type":"bytes32"}],"name":"purchaseCourse","outputs":[],"stateMutability":"payable","type":"function"},{"inputs":[{"internalType":"bytes32","name":"courseHash","type":"bytes32"}],"name":"repurchaseCourse","outputs":[],"stateMutability":"payable","type":"function"},{"inputs":[{"internalType":"address","name":"newOwner","type":"address"}],"name":"transferOwnership","outputs":[],"stateMutability":"nonpayable","type":"function"}],"evm":{"bytecode":{"linkReferences":{},"object":"608060405234801561001057600080fd5b506100203361002560201b60201c565b610069565b80600360006101000a81548173ffffffffffffffffffffffffffffffffffffffff021916908373ffffffffffffffffffffffffffffffffffffffff16021790555050565b611140806100786000396000f3fe6080604052600436106100865760003560e01c80636d11290b116100595780636d11290b14610138578063935d7e6d1461017557806396cfda061461019e578063d76821cb146101c9578063f2fde38b146101e557610086565b8063392625721461008b578063442890d5146100b45780636136e1eb146100df57806362e4e6ac146100fb575b600080fd5b34801561009757600080fd5b506100b260048036038101906100ad9190610be3565b61020e565b005b3480156100c057600080fd5b506100c961036f565b6040516100d69190610c51565b60405180910390f35b6100f960048036038101906100f49190610be3565b610399565b005b34801561010757600080fd5b50610122600480360381019061011d9190610be3565b6104d5565b60405161012f9190610d82565b60405180910390f35b34801561014457600080fd5b5061015f600480360381019061015a9190610dc9565b6105b0565b60405161016c9190610e05565b60405180910390f35b34801561018157600080fd5b5061019c60048036038101906101979190610be3565b6105cd565b005b3480156101aa57600080fd5b506101b361080d565b6040516101c09190610e2f565b60405180910390f35b6101e360048036038101906101de9190610ea2565b610817565b005b3480156101f157600080fd5b5061020c60048036038101906102079190610f0e565b6109b7565b005b61021661036f565b73ffffffffffffffffffffffffffffffffffffffff163373ffffffffffffffffffffffffffffffffffffffff161461027a576040517f5fc483c500000000000000000000000000000000000000000000000000000000815260040160405180910390fd5b61028381610a2f565b6102b9576040517f4db0c48300000000000000000000000000000000000000000000000000000000815260040160405180910390fd5b60008060008381526020019081526020016000209050600060028111156102e3576102e2610ca3565b5b8160030160149054906101000a900460ff16600281111561030757610306610ca3565b5b1461033e576040517fbaf3f0f700000000000000000000000000000000000000000000000000000000815260040160405180910390fd5b60018160030160146101000a81548160ff0219169083600281111561036657610365610ca3565b5b02179055505050565b6000600360009054906101000a900473ffffffffffffffffffffffffffffffffffffffff16905090565b6103a281610a2f565b6103d8576040517f4db0c48300000000000000000000000000000000000000000000000000000000815260040160405180910390fd5b6103e181610a9d565b610417576040517fcce31cc400000000000000000000000000000000000000000000000000000000815260040160405180910390fd5b600080600083815260200190815260200160002090506002808111156104405761043f610ca3565b5b8160030160149054906101000a900460ff16600281111561046457610463610ca3565b5b1461049b576040517fbaf3f0f700000000000000000000000000000000000000000000000000000000815260040160405180910390fd5b60008160030160146101000a81548160ff021916908360028111156104c3576104c2610ca3565b5b02179055503481600101819055505050565b6104dd610b4e565b6000808381526020019081526020016000206040518060a00160405290816000820154815260200160018201548152602001600282015481526020016003820160009054906101000a900473ffffffffffffffffffffffffffffffffffffffff1673ffffffffffffffffffffffffffffffffffffffff1673ffffffffffffffffffffffffffffffffffffffff1681526020016003820160149054906101000a900460ff16600281111561059357610592610ca3565b5b60028111156105a5576105a4610ca3565b5b815250509050919050565b600060016000838152602001908152602001600020549050919050565b6105d561036f565b73ffffffffffffffffffffffffffffffffffffffff163373ffffffffffffffffffffffffffffffffffffffff1614610639576040517f5fc483c500000000000000000000000000000000000000000000000000000000815260040160405180910390fd5b61064281610a2f565b610678576040517f4db0c48300000000000000000000000000000000000000000000000000000000815260040160405180910390fd5b60008060008381526020019081526020016000209050600060028111156106a2576106a1610ca3565b5b8160030160149054906101000a900460ff1660028111156106c6576106c5610ca3565b5b146106fd576040517fbaf3f0f700000000000000000000000000000000000000000000000000000000815260040160405180910390fd5b60008160030160009054906101000a900473ffffffffffffffffffffffffffffffffffffffff1673ffffffffffffffffffffffffffffffffffffffff16826001015460405161074b90610f6c565b60006040518083038185875af1925050503d8060008114610788576040519150601f19603f3d011682016040523d82523d6000602084013e61078d565b606091505b50509050806107d1576040517f08c379a00000000000000000000000000000000000000000000000000000000081526004016107c890610fde565b60405180910390fd5b60028260030160146101000a81548160ff021916908360028111156107f9576107f8610ca3565b5b021790555060008260010181905550505050565b6000600254905090565b6000823360405160200161082c929190611067565b60405160208183030381529060405280519060200120905061084d81610a9d565b15610884576040517fb0fc2d9700000000000000000000000000000000000000000000000000000000815260040160405180910390fd5b600060026000815480929190610899906110c2565b9190505590508160016000838152602001908152602001600020819055506040518060a001604052808281526020013481526020018481526020013373ffffffffffffffffffffffffffffffffffffffff1681526020016000600281111561090457610903610ca3565b5b81525060008084815260200190815260200160002060008201518160000155602082015181600101556040820151816002015560608201518160030160006101000a81548173ffffffffffffffffffffffffffffffffffffffff021916908373ffffffffffffffffffffffffffffffffffffffff16021790555060808201518160030160146101000a81548160ff021916908360028111156109a9576109a8610ca3565b5b021790555090505050505050565b6109bf61036f565b73ffffffffffffffffffffffffffffffffffffffff163373ffffffffffffffffffffffffffffffffffffffff1614610a23576040517f5fc483c500000000000000000000000000000000000000000000000000000000815260040160405180910390fd5b610a2c81610b0a565b50565b60008073ffffffffffffffffffffffffffffffffffffffff1660008084815260200190815260200160002060030160009054906101000a900473ffffffffffffffffffffffffffffffffffffffff1673ffffffffffffffffffffffffffffffffffffffff1614159050919050565b60003373ffffffffffffffffffffffffffffffffffffffff1660008084815260200190815260200160002060030160009054906101000a900473ffffffffffffffffffffffffffffffffffffffff1673ffffffffffffffffffffffffffffffffffffffff16149050919050565b80600360006101000a81548173ffffffffffffffffffffffffffffffffffffffff021916908373ffffffffffffffffffffffffffffffffffffffff16021790555050565b6040518060a00160405280600081526020016000815260200160008019168152602001600073ffffffffffffffffffffffffffffffffffffffff16815260200160006002811115610ba257610ba1610ca3565b5b81525090565b600080fd5b6000819050919050565b610bc081610bad565b8114610bcb57600080fd5b50565b600081359050610bdd81610bb7565b92915050565b600060208284031215610bf957610bf8610ba8565b5b6000610c0784828501610bce565b91505092915050565b600073ffffffffffffffffffffffffffffffffffffffff82169050919050565b6000610c3b82610c10565b9050919050565b610c4b81610c30565b82525050565b6000602082019050610c666000830184610c42565b92915050565b6000819050919050565b610c7f81610c6c565b82525050565b610c8e81610bad565b82525050565b610c9d81610c30565b82525050565b7f4e487b7100000000000000000000000000000000000000000000000000000000600052602160045260246000fd5b60038110610ce357610ce2610ca3565b5b50565b6000819050610cf482610cd2565b919050565b6000610d0482610ce6565b9050919050565b610d1481610cf9565b82525050565b60a082016000820151610d306000850182610c76565b506020820151610d436020850182610c76565b506040820151610d566040850182610c85565b506060820151610d696060850182610c94565b506080820151610d7c6080850182610d0b565b50505050565b600060a082019050610d976000830184610d1a565b92915050565b610da681610c6c565b8114610db157600080fd5b50565b600081359050610dc381610d9d565b92915050565b600060208284031215610ddf57610dde610ba8565b5b6000610ded84828501610db4565b91505092915050565b610dff81610bad565b82525050565b6000602082019050610e1a6000830184610df6565b92915050565b610e2981610c6c565b82525050565b6000602082019050610e446000830184610e20565b92915050565b60007fffffffffffffffffffffffffffffffff0000000000000000000000000000000082169050919050565b610e7f81610e4a565b8114610e8a57600080fd5b50565b600081359050610e9c81610e76565b92915050565b60008060408385031215610eb957610eb8610ba8565b5b6000610ec785828601610e8d565b9250506020610ed885828601610bce565b9150509250929050565b610eeb81610c30565b8114610ef657600080fd5b50565b600081359050610f0881610ee2565b92915050565b600060208284031215610f2457610f23610ba8565b5b6000610f3284828501610ef9565b91505092915050565b600081905092915050565b50565b6000610f56600083610f3b565b9150610f6182610f46565b600082019050919050565b6000610f7782610f49565b9150819050919050565b600082825260208201905092915050565b7f5472616e73666572206661696c65642100000000000000000000000000000000600082015250565b6000610fc8601083610f81565b9150610fd382610f92565b602082019050919050565b60006020820190508181036000830152610ff781610fbb565b9050919050565b6000819050919050565b61101961101482610e4a565b610ffe565b82525050565b60008160601b9050919050565b60006110378261101f565b9050919050565b60006110498261102c565b9050919050565b61106161105c82610c30565b61103e565b82525050565b60006110738285611008565b6010820191506110838284611050565b6014820191508190509392505050565b7f4e487b7100000000000000000000000000000000000000000000000000000000600052601160045260246000fd5b60006110cd82610c6c565b91507fffffffffffffffffffffffffffffffffffffffffffffffffffffffffffffffff82036110ff576110fe611093565b5b60018201905091905056fea2646970667358221220a5084cf777598b5332edc2ba02867bd2b46e36c33c0e5f3d4e51462d7aef30d164736f6c63430008180033","opcodes":"PUSH1 0x80 PUSH1 0x40 MSTORE CALLVALUE DUP1 ISZERO PUSH2 0x10 JUMPI PUSH1 0x0 DUP1 REVERT JUMPDEST POP PUSH2 0x20 CALLER PUSH2 0x25 PUSH1 0x20 SHL PUSH1 0x20 SHR JUMP JUMPDEST PUSH2 0x69 JUMP JUMPDEST DUP1 PUSH1 0x3 PUSH1 0x0 PUSH2 0x100 EXP DUP2 SLOAD DUP2 PUSH20 0xFFFFFFFFFFFFFFFFFFFFFFFFFFFFFFFFFFFFFFFF MUL NOT AND SWAP1 DUP4 PUSH20 0xFFFFFFFFFFFFFFFFFFFFFFFFFFFFFFFFFFFFFFFF AND MUL OR SWAP1 SSTORE POP POP JUMP JUMPDEST PUSH2 0x1140 DUP1 PUSH2 0x78 PUSH1 0x0 CODECOPY PUSH1 0x0 RETURN INVALID PUSH1 0x80 PUSH1 0x40 MSTORE PUSH1 0x4 CALLDATASIZE LT PUSH2 0x86 JUMPI PUSH1 0x0 CALLDATALOAD PUSH1 0xE0 SHR DUP1 PUSH4 0x6D11290B GT PUSH2 0x59 JUMPI DUP1 PUSH4 0x6D11290B EQ PUSH2 0x138 JUMPI DUP1 PUSH4 0x935D7E6D EQ PUSH2 0x175 JUMPI DUP1 PUSH4 0x96CFDA06 EQ PUSH2 0x19E JUMPI DUP1 PUSH4 0xD76821CB EQ PUSH2 0x1C9 JUMPI DUP1 PUSH4 0xF2FDE38B EQ PUSH2 0x1E5 JUMPI PUSH2 0x86 JUMP JUMPDEST DUP1 PUSH4 0x39262572 EQ PUSH2 0x8B JUMPI DUP1 PUSH4 0x442890D5 EQ PUSH2 0xB4 JUMPI DUP1 PUSH4 0x6136E1EB EQ PUSH2 0xDF JUMPI DUP1 PUSH4 0x62E4E6AC EQ PUSH2 0xFB JUMPI JUMPDEST PUSH1 0x0 DUP1 REVERT JUMPDEST CALLVALUE DUP1 ISZERO PUSH2 0x97 JUMPI PUSH1 0x0 DUP1 REVERT JUMPDEST POP PUSH2 0xB2 PUSH1 0x4 DUP1 CALLDATASIZE SUB DUP2 ADD SWAP1 PUSH2 0xAD SWAP2 SWAP1 PUSH2 0xBE3 JUMP JUMPDEST PUSH2 0x20E JUMP JUMPDEST STOP JUMPDEST CALLVALUE DUP1 ISZERO PUSH2 0xC0 JUMPI PUSH1 0x0 DUP1 REVERT JUMPDEST POP PUSH2 0xC9 PUSH2 0x36F JUMP JUMPDEST PUSH1 0x40 MLOAD PUSH2 0xD6 SWAP2 SWAP1 PUSH2 0xC51 JUMP JUMPDEST PUSH1 0x40 MLOAD DUP1 SWAP2 SUB SWAP1 RETURN JUMPDEST PUSH2 0xF9 PUSH1 0x4 DUP1 CALLDATASIZE SUB DUP2 ADD SWAP1 PUSH2 0xF4 SWAP2 SWAP1 PUSH2 0xBE3 JUMP JUMPDEST PUSH2 0x399 JUMP JUMPDEST STOP JUMPDEST CALLVALUE DUP1 ISZERO PUSH2 0x107 JUMPI PUSH1 0x0 DUP1 REVERT JUMPDEST POP PUSH2 0x122 PUSH1 0x4 DUP1 CALLDATASIZE SUB DUP2 ADD SWAP1 PUSH2 0x11D SWAP2 SWAP1 PUSH2 0xBE3 JUMP JUMPDEST PUSH2 0x4D5 JUMP JUMPDEST PUSH1 0x40 MLOAD PUSH2 0x12F SWAP2 SWAP1 PUSH2 0xD82 JUMP JUMPDEST PUSH1 0x40 MLOAD DUP1 SWAP2 SUB SWAP1 RETURN JUMPDEST CALLVALUE DUP1 ISZERO PUSH2 0x144 JUMPI PUSH1 0x0 DUP1 REVERT JUMPDEST POP PUSH2 0x15F PUSH1 0x4 DUP1 CALLDATASIZE SUB DUP2 ADD SWAP1 PUSH2 0x15A SWAP2 SWAP1 PUSH2 0xDC9 JUMP JUMPDEST PUSH2 0x5B0 JUMP JUMPDEST PUSH1 0x40 MLOAD PUSH2 0x16C SWAP2 SWAP1 PUSH2 0xE05 JUMP JUMPDEST PUSH1 0x40 MLOAD DUP1 SWAP2 SUB SWAP1 RETURN JUMPDEST CALLVALUE DUP1 ISZERO PUSH2 0x181 JUMPI PUSH1 0x0 DUP1 REVERT JUMPDEST POP PUSH2 0x19C PUSH1 0x4 DUP1 CALLDATASIZE SUB DUP2 ADD SWAP1 PUSH2 0x197 SWAP2 SWAP1 PUSH2 0xBE3 JUMP JUMPDEST PUSH2 0x5CD JUMP JUMPDEST STOP JUMPDEST CALLVALUE DUP1 ISZERO PUSH2 0x1AA JUMPI PUSH1 0x0 DUP1 REVERT JUMPDEST POP PUSH2 0x1B3 PUSH2 0x80D JUMP JUMPDEST PUSH1 0x40 MLOAD PUSH2 0x1C0 SWAP2 SWAP1 PUSH2 0xE2F JUMP JUMPDEST PUSH1 0x40 MLOAD DUP1 SWAP2 SUB SWAP1 RETURN JUMPDEST PUSH2 0x1E3 PUSH1 0x4 DUP1 CALLDATASIZE SUB DUP2 ADD SWAP1 PUSH2 0x1DE SWAP2 SWAP1 PUSH2 0xEA2 JUMP JUMPDEST PUSH2 0x817 JUMP JUMPDEST STOP JUMPDEST CALLVALUE DUP1 ISZERO PUSH2 0x1F1 JUMPI PUSH1 0x0 DUP1 REVERT JUMPDEST POP PUSH2 0x20C PUSH1 0x4 DUP1 CALLDATASIZE SUB DUP2 ADD SWAP1 PUSH2 0x207 SWAP2 SWAP1 PUSH2 0xF0E JUMP JUMPDEST PUSH2 0x9B7 JUMP JUMPDEST STOP JUMPDEST PUSH2 0x216 PUSH2 0x36F JUMP JUMPDEST PUSH20 0xFFFFFFFFFFFFFFFFFFFFFFFFFFFFFFFFFFFFFFFF AND CALLER PUSH20 0xFFFFFFFFFFFFFFFFFFFFFFFFFFFFFFFFFFFFFFFF AND EQ PUSH2 0x27A JUMPI PUSH1 0x40 MLOAD PUSH32 0x5FC483C500000000000000000000000000000000000000000000000000000000 DUP2 MSTORE PUSH1 0x4 ADD PUSH1 0x40 MLOAD DUP1 SWAP2 SUB SWAP1 REVERT JUMPDEST PUSH2 0x283 DUP2 PUSH2 0xA2F JUMP JUMPDEST PUSH2 0x2B9 JUMPI PUSH1 0x40 MLOAD PUSH32 0x4DB0C48300000000000000000000000000000000000000000000000000000000 DUP2 MSTORE PUSH1 0x4 ADD PUSH1 0x40 MLOAD DUP1 SWAP2 SUB SWAP1 REVERT JUMPDEST PUSH1 0x0 DUP1 PUSH1 0x0 DUP4 DUP2 MSTORE PUSH1 0x20 ADD SWAP1 DUP2 MSTORE PUSH1 0x20 ADD PUSH1 0x0 KECCAK256 SWAP1 POP PUSH1 0x0 PUSH1 0x2 DUP2 GT ISZERO PUSH2 0x2E3 JUMPI PUSH2 0x2E2 PUSH2 0xCA3 JUMP JUMPDEST JUMPDEST DUP2 PUSH1 0x3 ADD PUSH1 0x14 SWAP1 SLOAD SWAP1 PUSH2 0x100 EXP SWAP1 DIV PUSH1 0xFF AND PUSH1 0x2 DUP2 GT ISZERO PUSH2 0x307 JUMPI PUSH2 0x306 PUSH2 0xCA3 JUMP JUMPDEST JUMPDEST EQ PUSH2 0x33E JUMPI PUSH1 0x40 MLOAD PUSH32 0xBAF3F0F700000000000000000000000000000000000000000000000000000000 DUP2 MSTORE PUSH1 0x4 ADD PUSH1 0x40 MLOAD DUP1 SWAP2 SUB SWAP1 REVERT JUMPDEST PUSH1 0x1 DUP2 PUSH1 0x3 ADD PUSH1 0x14 PUSH2 0x100 EXP DUP2 SLOAD DUP2 PUSH1 0xFF MUL NOT AND SWAP1 DUP4 PUSH1 0x2 DUP2 GT ISZERO PUSH2 0x366 JUMPI PUSH2 0x365 PUSH2 0xCA3 JUMP JUMPDEST JUMPDEST MUL OR SWAP1 SSTORE POP POP POP JUMP JUMPDEST PUSH1 0x0 PUSH1 0x3 PUSH1 0x0 SWAP1 SLOAD SWAP1 PUSH2 0x100 EXP SWAP1 DIV PUSH20 0xFFFFFFFFFFFFFFFFFFFFFFFFFFFFFFFFFFFFFFFF AND SWAP1 POP SWAP1 JUMP JUMPDEST PUSH2 0x3A2 DUP2 PUSH2 0xA2F JUMP JUMPDEST PUSH2 0x3D8 JUMPI PUSH1 0x40 MLOAD PUSH32 0x4DB0C48300000000000000000000000000000000000000000000000000000000 DUP2 MSTORE PUSH1 0x4 ADD PUSH1 0x40 MLOAD DUP1 SWAP2 SUB SWAP1 REVERT JUMPDEST PUSH2 0x3E1 DUP2 PUSH2 0xA9D JUMP JUMPDEST PUSH2 0x417 JUMPI PUSH1 0x40 MLOAD PUSH32 0xCCE31CC400000000000000000000000000000000000000000000000000000000 DUP2 MSTORE PUSH1 0x4 ADD PUSH1 0x40 MLOAD DUP1 SWAP2 SUB SWAP1 REVERT JUMPDEST PUSH1 0x0 DUP1 PUSH1 0x0 DUP4 DUP2 MSTORE PUSH1 0x20 ADD SWAP1 DUP2 MSTORE PUSH1 0x20 ADD PUSH1 0x0 KECCAK256 SWAP1 POP PUSH1 0x2 DUP1 DUP2 GT ISZERO PUSH2 0x440 JUMPI PUSH2 0x43F PUSH2 0xCA3 JUMP JUMPDEST JUMPDEST DUP2 PUSH1 0x3 ADD PUSH1 0x14 SWAP1 SLOAD SWAP1 PUSH2 0x100 EXP SWAP1 DIV PUSH1 0xFF AND PUSH1 0x2 DUP2 GT ISZERO PUSH2 0x464 JUMPI PUSH2 0x463 PUSH2 0xCA3 JUMP JUMPDEST JUMPDEST EQ PUSH2 0x49B JUMPI PUSH1 0x40 MLOAD PUSH32 0xBAF3F0F700000000000000000000000000000000000000000000000000000000 DUP2 MSTORE PUSH1 0x4 ADD PUSH1 0x40 MLOAD DUP1 SWAP2 SUB SWAP1 REVERT JUMPDEST PUSH1 0x0 DUP2 PUSH1 0x3 ADD PUSH1 0x14 PUSH2 0x100 EXP DUP2 SLOAD DUP2 PUSH1 0xFF MUL NOT AND SWAP1 DUP4 PUSH1 0x2 DUP2 GT ISZERO PUSH2 0x4C3 JUMPI PUSH2 0x4C2 PUSH2 0xCA3 JUMP JUMPDEST JUMPDEST MUL OR SWAP1 SSTORE POP CALLVALUE DUP2 PUSH1 0x1 ADD DUP2 SWAP1 SSTORE POP POP POP JUMP JUMPDEST PUSH2 0x4DD PUSH2 0xB4E JUMP JUMPDEST PUSH1 0x0 DUP1 DUP4 DUP2 MSTORE PUSH1 0x20 ADD SWAP1 DUP2 MSTORE PUSH1 0x20 ADD PUSH1 0x0 KECCAK256 PUSH1 0x40 MLOAD DUP1 PUSH1 0xA0 ADD PUSH1 0x40 MSTORE SWAP1 DUP2 PUSH1 0x0 DUP3 ADD SLOAD DUP2 MSTORE PUSH1 0x20 ADD PUSH1 0x1 DUP3 ADD SLOAD DUP2 MSTORE PUSH1 0x20 ADD PUSH1 0x2 DUP3 ADD SLOAD DUP2 MSTORE PUSH1 0x20 ADD PUSH1 0x3 DUP3 ADD PUSH1 0x0 SWAP1 SLOAD SWAP1 PUSH2 0x100 EXP SWAP1 DIV PUSH20 0xFFFFFFFFFFFFFFFFFFFFFFFFFFFFFFFFFFFFFFFF AND PUSH20 0xFFFFFFFFFFFFFFFFFFFFFFFFFFFFFFFFFFFFFFFF AND PUSH20 0xFFFFFFFFFFFFFFFFFFFFFFFFFFFFFFFFFFFFFFFF AND DUP2 MSTORE PUSH1 0x20 ADD PUSH1 0x3 DUP3 ADD PUSH1 0x14 SWAP1 SLOAD SWAP1 PUSH2 0x100 EXP SWAP1 DIV PUSH1 0xFF AND PUSH1 0x2 DUP2 GT ISZERO PUSH2 0x593 JUMPI PUSH2 0x592 PUSH2 0xCA3 JUMP JUMPDEST JUMPDEST PUSH1 0x2 DUP2 GT ISZERO PUSH2 0x5A5 JUMPI PUSH2 0x5A4 PUSH2 0xCA3 JUMP JUMPDEST JUMPDEST DUP2 MSTORE POP POP SWAP1 POP SWAP2 SWAP1 POP JUMP JUMPDEST PUSH1 0x0 PUSH1 0x1 PUSH1 0x0 DUP4 DUP2 MSTORE PUSH1 0x20 ADD SWAP1 DUP2 MSTORE PUSH1 0x20 ADD PUSH1 0x0 KECCAK256 SLOAD SWAP1 POP SWAP2 SWAP1 POP JUMP JUMPDEST PUSH2 0x5D5 PUSH2 0x36F JUMP JUMPDEST PUSH20 0xFFFFFFFFFFFFFFFFFFFFFFFFFFFFFFFFFFFFFFFF AND CALLER PUSH20 0xFFFFFFFFFFFFFFFFFFFFFFFFFFFFFFFFFFFFFFFF AND EQ PUSH2 0x639 JUMPI PUSH1 0x40 MLOAD PUSH32 0x5FC483C500000000000000000000000000000000000000000000000000000000 DUP2 MSTORE PUSH1 0x4 ADD PUSH1 0x40 MLOAD DUP1 SWAP2 SUB SWAP1 REVERT JUMPDEST PUSH2 0x642 DUP2 PUSH2 0xA2F JUMP JUMPDEST PUSH2 0x678 JUMPI PUSH1 0x40 MLOAD PUSH32 0x4DB0C48300000000000000000000000000000000000000000000000000000000 DUP2 MSTORE PUSH1 0x4 ADD PUSH1 0x40 MLOAD DUP1 SWAP2 SUB SWAP1 REVERT JUMPDEST PUSH1 0x0 DUP1 PUSH1 0x0 DUP4 DUP2 MSTORE PUSH1 0x20 ADD SWAP1 DUP2 MSTORE PUSH1 0x20 ADD PUSH1 0x0 KECCAK256 SWAP1 POP PUSH1 0x0 PUSH1 0x2 DUP2 GT ISZERO PUSH2 0x6A2 JUMPI PUSH2 0x6A1 PUSH2 0xCA3 JUMP JUMPDEST JUMPDEST DUP2 PUSH1 0x3 ADD PUSH1 0x14 SWAP1 SLOAD SWAP1 PUSH2 0x100 EXP SWAP1 DIV PUSH1 0xFF AND PUSH1 0x2 DUP2 GT ISZERO PUSH2 0x6C6 JUMPI PUSH2 0x6C5 PUSH2 0xCA3 JUMP JUMPDEST JUMPDEST EQ PUSH2 0x6FD JUMPI PUSH1 0x40 MLOAD PUSH32 0xBAF3F0F700000000000000000000000000000000000000000000000000000000 DUP2 MSTORE PUSH1 0x4 ADD PUSH1 0x40 MLOAD DUP1 SWAP2 SUB SWAP1 REVERT JUMPDEST PUSH1 0x0 DUP2 PUSH1 0x3 ADD PUSH1 0x0 SWAP1 SLOAD SWAP1 PUSH2 0x100 EXP SWAP1 DIV PUSH20 0xFFFFFFFFFFFFFFFFFFFFFFFFFFFFFFFFFFFFFFFF AND PUSH20 0xFFFFFFFFFFFFFFFFFFFFFFFFFFFFFFFFFFFFFFFF AND DUP3 PUSH1 0x1 ADD SLOAD PUSH1 0x40 MLOAD PUSH2 0x74B SWAP1 PUSH2 0xF6C JUMP JUMPDEST PUSH1 0x0 PUSH1 0x40 MLOAD DUP1 DUP4 SUB DUP2 DUP6 DUP8 GAS CALL SWAP3 POP POP POP RETURNDATASIZE DUP1 PUSH1 0x0 DUP2 EQ PUSH2 0x788 JUMPI PUSH1 0x40 MLOAD SWAP2 POP PUSH1 0x1F NOT PUSH1 0x3F RETURNDATASIZE ADD AND DUP3 ADD PUSH1 0x40 MSTORE RETURNDATASIZE DUP3 MSTORE RETURNDATASIZE PUSH1 0x0 PUSH1 0x20 DUP5 ADD RETURNDATACOPY PUSH2 0x78D JUMP JUMPDEST PUSH1 0x60 SWAP2 POP JUMPDEST POP POP SWAP1 POP DUP1 PUSH2 0x7D1 JUMPI PUSH1 0x40 MLOAD PUSH32 0x8C379A000000000000000000000000000000000000000000000000000000000 DUP2 MSTORE PUSH1 0x4 ADD PUSH2 0x7C8 SWAP1 PUSH2 0xFDE JUMP JUMPDEST PUSH1 0x40 MLOAD DUP1 SWAP2 SUB SWAP1 REVERT JUMPDEST PUSH1 0x2 DUP3 PUSH1 0x3 ADD PUSH1 0x14 PUSH2 0x100 EXP DUP2 SLOAD DUP2 PUSH1 0xFF MUL NOT AND SWAP1 DUP4 PUSH1 0x2 DUP2 GT ISZERO PUSH2 0x7F9 JUMPI PUSH2 0x7F8 PUSH2 0xCA3 JUMP JUMPDEST JUMPDEST MUL OR SWAP1 SSTORE POP PUSH1 0x0 DUP3 PUSH1 0x1 ADD DUP2 SWAP1 SSTORE POP POP POP POP JUMP JUMPDEST PUSH1 0x0 PUSH1 0x2 SLOAD SWAP1 POP SWAP1 JUMP JUMPDEST PUSH1 0x0 DUP3 CALLER PUSH1 0x40 MLOAD PUSH1 0x20 ADD PUSH2 0x82C SWAP3 SWAP2 SWAP1 PUSH2 0x1067 JUMP JUMPDEST PUSH1 0x40 MLOAD PUSH1 0x20 DUP2 DUP4 SUB SUB DUP2 MSTORE SWAP1 PUSH1 0x40 MSTORE DUP1 MLOAD SWAP1 PUSH1 0x20 ADD KECCAK256 SWAP1 POP PUSH2 0x84D DUP2 PUSH2 0xA9D JUMP JUMPDEST ISZERO PUSH2 0x884 JUMPI PUSH1 0x40 MLOAD PUSH32 0xB0FC2D9700000000000000000000000000000000000000000000000000000000 DUP2 MSTORE PUSH1 0x4 ADD PUSH1 0x40 MLOAD DUP1 SWAP2 SUB SWAP1 REVERT JUMPDEST PUSH1 0x0 PUSH1 0x2 PUSH1 0x0 DUP2 SLOAD DUP1 SWAP3 SWAP2 SWAP1 PUSH2 0x899 SWAP1 PUSH2 0x10C2 JUMP JUMPDEST SWAP2 SWAP1 POP SSTORE SWAP1 POP DUP2 PUSH1 0x1 PUSH1 0x0 DUP4 DUP2 MSTORE PUSH1 0x20 ADD SWAP1 DUP2 MSTORE PUSH1 0x20 ADD PUSH1 0x0 KECCAK256 DUP2 SWAP1 SSTORE POP PUSH1 0x40 MLOAD DUP1 PUSH1 0xA0 ADD PUSH1 0x40 MSTORE DUP1 DUP3 DUP2 MSTORE PUSH1 0x20 ADD CALLVALUE DUP2 MSTORE PUSH1 0x20 ADD DUP5 DUP2 MSTORE PUSH1 0x20 ADD CALLER PUSH20 0xFFFFFFFFFFFFFFFFFFFFFFFFFFFFFFFFFFFFFFFF AND DUP2 MSTORE PUSH1 0x20 ADD PUSH1 0x0 PUSH1 0x2 DUP2 GT ISZERO PUSH2 0x904 JUMPI PUSH2 0x903 PUSH2 0xCA3 JUMP JUMPDEST JUMPDEST DUP2 MSTORE POP PUSH1 0x0 DUP1 DUP5 DUP2 MSTORE PUSH1 0x20 ADD SWAP1 DUP2 MSTORE PUSH1 0x20 ADD PUSH1 0x0 KECCAK256 PUSH1 0x0 DUP3 ADD MLOAD DUP2 PUSH1 0x0 ADD SSTORE PUSH1 0x20 DUP3 ADD MLOAD DUP2 PUSH1 0x1 ADD SSTORE PUSH1 0x40 DUP3 ADD MLOAD DUP2 PUSH1 0x2 ADD SSTORE PUSH1 0x60 DUP3 ADD MLOAD DUP2 PUSH1 0x3 ADD PUSH1 0x0 PUSH2 0x100 EXP DUP2 SLOAD DUP2 PUSH20 0xFFFFFFFFFFFFFFFFFFFFFFFFFFFFFFFFFFFFFFFF MUL NOT AND SWAP1 DUP4 PUSH20 0xFFFFFFFFFFFFFFFFFFFFFFFFFFFFFFFFFFFFFFFF AND MUL OR SWAP1 SSTORE POP PUSH1 0x80 DUP3 ADD MLOAD DUP2 PUSH1 0x3 ADD PUSH1 0x14 PUSH2 0x100 EXP DUP2 SLOAD DUP2 PUSH1 0xFF MUL NOT AND SWAP1 DUP4 PUSH1 0x2 DUP2 GT ISZERO PUSH2 0x9A9 JUMPI PUSH2 0x9A8 PUSH2 0xCA3 JUMP JUMPDEST JUMPDEST MUL OR SWAP1 SSTORE POP SWAP1 POP POP POP POP POP POP JUMP JUMPDEST PUSH2 0x9BF PUSH2 0x36F JUMP JUMPDEST PUSH20 0xFFFFFFFFFFFFFFFFFFFFFFFFFFFFFFFFFFFFFFFF AND CALLER PUSH20 0xFFFFFFFFFFFFFFFFFFFFFFFFFFFFFFFFFFFFFFFF AND EQ PUSH2 0xA23 JUMPI PUSH1 0x40 MLOAD PUSH32 0x5FC483C500000000000000000000000000000000000000000000000000000000 DUP2 MSTORE PUSH1 0x4 ADD PUSH1 0x40 MLOAD DUP1 SWAP2 SUB SWAP1 REVERT JUMPDEST PUSH2 0xA2C DUP2 PUSH2 0xB0A JUMP JUMPDEST POP JUMP JUMPDEST PUSH1 0x0 DUP1 PUSH20 0xFFFFFFFFFFFFFFFFFFFFFFFFFFFFFFFFFFFFFFFF AND PUSH1 0x0 DUP1 DUP5 DUP2 MSTORE PUSH1 0x20 ADD SWAP1 DUP2 MSTORE PUSH1 0x20 ADD PUSH1 0x0 KECCAK256 PUSH1 0x3 ADD PUSH1 0x0 SWAP1 SLOAD SWAP1 PUSH2 0x100 EXP SWAP1 DIV PUSH20 0xFFFFFFFFFFFFFFFFFFFFFFFFFFFFFFFFFFFFFFFF AND PUSH20 0xFFFFFFFFFFFFFFFFFFFFFFFFFFFFFFFFFFFFFFFF AND EQ ISZERO SWAP1 POP SWAP2 SWAP1 POP JUMP JUMPDEST PUSH1 0x0 CALLER PUSH20 0xFFFFFFFFFFFFFFFFFFFFFFFFFFFFFFFFFFFFFFFF AND PUSH1 0x0 DUP1 DUP5 DUP2 MSTORE PUSH1 0x20 ADD SWAP1 DUP2 MSTORE PUSH1 0x20 ADD PUSH1 0x0 KECCAK256 PUSH1 0x3 ADD PUSH1 0x0 SWAP1 SLOAD SWAP1 PUSH2 0x100 EXP SWAP1 DIV PUSH20 0xFFFFFFFFFFFFFFFFFFFFFFFFFFFFFFFFFFFFFFFF AND PUSH20 0xFFFFFFFFFFFFFFFFFFFFFFFFFFFFFFFFFFFFFFFF AND EQ SWAP1 POP SWAP2 SWAP1 POP JUMP JUMPDEST DUP1 PUSH1 0x3 PUSH1 0x0 PUSH2 0x100 EXP DUP2 SLOAD DUP2 PUSH20 0xFFFFFFFFFFFFFFFFFFFFFFFFFFFFFFFFFFFFFFFF MUL NOT AND SWAP1 DUP4 PUSH20 0xFFFFFFFFFFFFFFFFFFFFFFFFFFFFFFFFFFFFFFFF AND MUL OR SWAP1 SSTORE POP POP JUMP JUMPDEST PUSH1 0x40 MLOAD DUP1 PUSH1 0xA0 ADD PUSH1 0x40 MSTORE DUP1 PUSH1 0x0 DUP2 MSTORE PUSH1 0x20 ADD PUSH1 0x0 DUP2 MSTORE PUSH1 0x20 ADD PUSH1 0x0 DUP1 NOT AND DUP2 MSTORE PUSH1 0x20 ADD PUSH1 0x0 PUSH20 0xFFFFFFFFFFFFFFFFFFFFFFFFFFFFFFFFFFFFFFFF AND DUP2 MSTORE PUSH1 0x20 ADD PUSH1 0x0 PUSH1 0x2 DUP2 GT ISZERO PUSH2 0xBA2 JUMPI PUSH2 0xBA1 PUSH2 0xCA3 JUMP JUMPDEST JUMPDEST DUP2 MSTORE POP SWAP1 JUMP JUMPDEST PUSH1 0x0 DUP1 REVERT JUMPDEST PUSH1 0x0 DUP2 SWAP1 POP SWAP2 SWAP1 POP JUMP JUMPDEST PUSH2 0xBC0 DUP2 PUSH2 0xBAD JUMP JUMPDEST DUP2 EQ PUSH2 0xBCB JUMPI PUSH1 0x0 DUP1 REVERT JUMPDEST POP JUMP JUMPDEST PUSH1 0x0 DUP2 CALLDATALOAD SWAP1 POP PUSH2 0xBDD DUP2 PUSH2 0xBB7 JUMP JUMPDEST SWAP3 SWAP2 POP POP JUMP JUMPDEST PUSH1 0x0 PUSH1 0x20 DUP3 DUP5 SUB SLT ISZERO PUSH2 0xBF9 JUMPI PUSH2 0xBF8 PUSH2 0xBA8 JUMP JUMPDEST JUMPDEST PUSH1 0x0 PUSH2 0xC07 DUP5 DUP3 DUP6 ADD PUSH2 0xBCE JUMP JUMPDEST SWAP2 POP POP SWAP3 SWAP2 POP POP JUMP JUMPDEST PUSH1 0x0 PUSH20 0xFFFFFFFFFFFFFFFFFFFFFFFFFFFFFFFFFFFFFFFF DUP3 AND SWAP1 POP SWAP2 SWAP1 POP JUMP JUMPDEST PUSH1 0x0 PUSH2 0xC3B DUP3 PUSH2 0xC10 JUMP JUMPDEST SWAP1 POP SWAP2 SWAP1 POP JUMP JUMPDEST PUSH2 0xC4B DUP2 PUSH2 0xC30 JUMP JUMPDEST DUP3 MSTORE POP POP JUMP JUMPDEST PUSH1 0x0 PUSH1 0x20 DUP3 ADD SWAP1 POP PUSH2 0xC66 PUSH1 0x0 DUP4 ADD DUP5 PUSH2 0xC42 JUMP JUMPDEST SWAP3 SWAP2 POP POP JUMP JUMPDEST PUSH1 0x0 DUP2 SWAP1 POP SWAP2 SWAP1 POP JUMP JUMPDEST PUSH2 0xC7F DUP2 PUSH2 0xC6C JUMP JUMPDEST DUP3 MSTORE POP POP JUMP JUMPDEST PUSH2 0xC8E DUP2 PUSH2 0xBAD JUMP JUMPDEST DUP3 MSTORE POP POP JUMP JUMPDEST PUSH2 0xC9D DUP2 PUSH2 0xC30 JUMP JUMPDEST DUP3 MSTORE POP POP JUMP JUMPDEST PUSH32 0x4E487B7100000000000000000000000000000000000000000000000000000000 PUSH1 0x0 MSTORE PUSH1 0x21 PUSH1 0x4 MSTORE PUSH1 0x24 PUSH1 0x0 REVERT JUMPDEST PUSH1 0x3 DUP2 LT PUSH2 0xCE3 JUMPI PUSH2 0xCE2 PUSH2 0xCA3 JUMP JUMPDEST JUMPDEST POP JUMP JUMPDEST PUSH1 0x0 DUP2 SWAP1 POP PUSH2 0xCF4 DUP3 PUSH2 0xCD2 JUMP JUMPDEST SWAP2 SWAP1 POP JUMP JUMPDEST PUSH1 0x0 PUSH2 0xD04 DUP3 PUSH2 0xCE6 JUMP JUMPDEST SWAP1 POP SWAP2 SWAP1 POP JUMP JUMPDEST PUSH2 0xD14 DUP2 PUSH2 0xCF9 JUMP JUMPDEST DUP3 MSTORE POP POP JUMP JUMPDEST PUSH1 0xA0 DUP3 ADD PUSH1 0x0 DUP3 ADD MLOAD PUSH2 0xD30 PUSH1 0x0 DUP6 ADD DUP3 PUSH2 0xC76 JUMP JUMPDEST POP PUSH1 0x20 DUP3 ADD MLOAD PUSH2 0xD43 PUSH1 0x20 DUP6 ADD DUP3 PUSH2 0xC76 JUMP JUMPDEST POP PUSH1 0x40 DUP3 ADD MLOAD PUSH2 0xD56 PUSH1 0x40 DUP6 ADD DUP3 PUSH2 0xC85 JUMP JUMPDEST POP PUSH1 0x60 DUP3 ADD MLOAD PUSH2 0xD69 PUSH1 0x60 DUP6 ADD DUP3 PUSH2 0xC94 JUMP JUMPDEST POP PUSH1 0x80 DUP3 ADD MLOAD PUSH2 0xD7C PUSH1 0x80 DUP6 ADD DUP3 PUSH2 0xD0B JUMP JUMPDEST POP POP POP POP JUMP JUMPDEST PUSH1 0x0 PUSH1 0xA0 DUP3 ADD SWAP1 POP PUSH2 0xD97 PUSH1 0x0 DUP4 ADD DUP5 PUSH2 0xD1A JUMP JUMPDEST SWAP3 SWAP2 POP POP JUMP JUMPDEST PUSH2 0xDA6 DUP2 PUSH2 0xC6C JUMP JUMPDEST DUP2 EQ PUSH2 0xDB1 JUMPI PUSH1 0x0 DUP1 REVERT JUMPDEST POP JUMP JUMPDEST PUSH1 0x0 DUP2 CALLDATALOAD SWAP1 POP PUSH2 0xDC3 DUP2 PUSH2 0xD9D JUMP JUMPDEST SWAP3 SWAP2 POP POP JUMP JUMPDEST PUSH1 0x0 PUSH1 0x20 DUP3 DUP5 SUB SLT ISZERO PUSH2 0xDDF JUMPI PUSH2 0xDDE PUSH2 0xBA8 JUMP JUMPDEST JUMPDEST PUSH1 0x0 PUSH2 0xDED DUP5 DUP3 DUP6 ADD PUSH2 0xDB4 JUMP JUMPDEST SWAP2 POP POP SWAP3 SWAP2 POP POP JUMP JUMPDEST PUSH2 0xDFF DUP2 PUSH2 0xBAD JUMP JUMPDEST DUP3 MSTORE POP POP JUMP JUMPDEST PUSH1 0x0 PUSH1 0x20 DUP3 ADD SWAP1 POP PUSH2 0xE1A PUSH1 0x0 DUP4 ADD DUP5 PUSH2 0xDF6 JUMP JUMPDEST SWAP3 SWAP2 POP POP JUMP JUMPDEST PUSH2 0xE29 DUP2 PUSH2 0xC6C JUMP JUMPDEST DUP3 MSTORE POP POP JUMP JUMPDEST PUSH1 0x0 PUSH1 0x20 DUP3 ADD SWAP1 POP PUSH2 0xE44 PUSH1 0x0 DUP4 ADD DUP5 PUSH2 0xE20 JUMP JUMPDEST SWAP3 SWAP2 POP POP JUMP JUMPDEST PUSH1 0x0 PUSH32 0xFFFFFFFFFFFFFFFFFFFFFFFFFFFFFFFF00000000000000000000000000000000 DUP3 AND SWAP1 POP SWAP2 SWAP1 POP JUMP JUMPDEST PUSH2 0xE7F DUP2 PUSH2 0xE4A JUMP JUMPDEST DUP2 EQ PUSH2 0xE8A JUMPI PUSH1 0x0 DUP1 REVERT JUMPDEST POP JUMP JUMPDEST PUSH1 0x0 DUP2 CALLDATALOAD SWAP1 POP PUSH2 0xE9C DUP2 PUSH2 0xE76 JUMP JUMPDEST SWAP3 SWAP2 POP POP JUMP JUMPDEST PUSH1 0x0 DUP1 PUSH1 0x40 DUP4 DUP6 SUB SLT ISZERO PUSH2 0xEB9 JUMPI PUSH2 0xEB8 PUSH2 0xBA8 JUMP JUMPDEST JUMPDEST PUSH1 0x0 PUSH2 0xEC7 DUP6 DUP3 DUP7 ADD PUSH2 0xE8D JUMP JUMPDEST SWAP3 POP POP PUSH1 0x20 PUSH2 0xED8 DUP6 DUP3 DUP7 ADD PUSH2 0xBCE JUMP JUMPDEST SWAP2 POP POP SWAP3 POP SWAP3 SWAP1 POP JUMP JUMPDEST PUSH2 0xEEB DUP2 PUSH2 0xC30 JUMP JUMPDEST DUP2 EQ PUSH2 0xEF6 JUMPI PUSH1 0x0 DUP1 REVERT JUMPDEST POP JUMP JUMPDEST PUSH1 0x0 DUP2 CALLDATALOAD SWAP1 POP PUSH2 0xF08 DUP2 PUSH2 0xEE2 JUMP JUMPDEST SWAP3 SWAP2 POP POP JUMP JUMPDEST PUSH1 0x0 PUSH1 0x20 DUP3 DUP5 SUB SLT ISZERO PUSH2 0xF24 JUMPI PUSH2 0xF23 PUSH2 0xBA8 JUMP JUMPDEST JUMPDEST PUSH1 0x0 PUSH2 0xF32 DUP5 DUP3 DUP6 ADD PUSH2 0xEF9 JUMP JUMPDEST SWAP2 POP POP SWAP3 SWAP2 POP POP JUMP JUMPDEST PUSH1 0x0 DUP2 SWAP1 POP SWAP3 SWAP2 POP POP JUMP JUMPDEST POP JUMP JUMPDEST PUSH1 0x0 PUSH2 0xF56 PUSH1 0x0 DUP4 PUSH2 0xF3B JUMP JUMPDEST SWAP2 POP PUSH2 0xF61 DUP3 PUSH2 0xF46 JUMP JUMPDEST PUSH1 0x0 DUP3 ADD SWAP1 POP SWAP2 SWAP1 POP JUMP JUMPDEST PUSH1 0x0 PUSH2 0xF77 DUP3 PUSH2 0xF49 JUMP JUMPDEST SWAP2 POP DUP2 SWAP1 POP SWAP2 SWAP1 POP JUMP JUMPDEST PUSH1 0x0 DUP3 DUP3 MSTORE PUSH1 0x20 DUP3 ADD SWAP1 POP SWAP3 SWAP2 POP POP JUMP JUMPDEST PUSH32 0x5472616E73666572206661696C65642100000000000000000000000000000000 PUSH1 0x0 DUP3 ADD MSTORE POP JUMP JUMPDEST PUSH1 0x0 PUSH2 0xFC8 PUSH1 0x10 DUP4 PUSH2 0xF81 JUMP JUMPDEST SWAP2 POP PUSH2 0xFD3 DUP3 PUSH2 0xF92 JUMP JUMPDEST PUSH1 0x20 DUP3 ADD SWAP1 POP SWAP2 SWAP1 POP JUMP JUMPDEST PUSH1 0x0 PUSH1 0x20 DUP3 ADD SWAP1 POP DUP2 DUP2 SUB PUSH1 0x0 DUP4 ADD MSTORE PUSH2 0xFF7 DUP2 PUSH2 0xFBB JUMP JUMPDEST SWAP1 POP SWAP2 SWAP1 POP JUMP JUMPDEST PUSH1 0x0 DUP2 SWAP1 POP SWAP2 SWAP1 POP JUMP JUMPDEST PUSH2 0x1019 PUSH2 0x1014 DUP3 PUSH2 0xE4A JUMP JUMPDEST PUSH2 0xFFE JUMP JUMPDEST DUP3 MSTORE POP POP JUMP JUMPDEST PUSH1 0x0 DUP2 PUSH1 0x60 SHL SWAP1 POP SWAP2 SWAP1 POP JUMP JUMPDEST PUSH1 0x0 PUSH2 0x1037 DUP3 PUSH2 0x101F JUMP JUMPDEST SWAP1 POP SWAP2 SWAP1 POP JUMP JUMPDEST PUSH1 0x0 PUSH2 0x1049 DUP3 PUSH2 0x102C JUMP JUMPDEST SWAP1 POP SWAP2 SWAP1 POP JUMP JUMPDEST PUSH2 0x1061 PUSH2 0x105C DUP3 PUSH2 0xC30 JUMP JUMPDEST PUSH2 0x103E JUMP JUMPDEST DUP3 MSTORE POP POP JUMP JUMPDEST PUSH1 0x0 PUSH2 0x1073 DUP3 DUP6 PUSH2 0x1008 JUMP JUMPDEST PUSH1 0x10 DUP3 ADD SWAP2 POP PUSH2 0x1083 DUP3 DUP5 PUSH2 0x1050 JUMP JUMPDEST PUSH1 0x14 DUP3 ADD SWAP2 POP DUP2 SWAP1 POP SWAP4 SWAP3 POP POP POP JUMP JUMPDEST PUSH32 0x4E487B7100000000000000000000000000000000000000000000000000000000 PUSH1 0x0 MSTORE PUSH1 0x11 PUSH1 0x4 MSTORE PUSH1 0x24 PUSH1 0x0 REVERT JUMPDEST PUSH1 0x0 PUSH2 0x10CD DUP3 PUSH2 0xC6C JUMP JUMPDEST SWAP2 POP PUSH32 0xFFFFFFFFFFFFFFFFFFFFFFFFFFFFFFFFFFFFFFFFFFFFFFFFFFFFFFFFFFFFFFFF DUP3 SUB PUSH2 0x10FF JUMPI PUSH2 0x10FE PUSH2 0x1093 JUMP JUMPDEST JUMPDEST PUSH1 0x1 DUP3 ADD SWAP1 POP SWAP2 SWAP1 POP JUMP INVALID LOG2 PUSH5 0x6970667358 0x22 SLT KECCAK256 0xA5 ADDMOD 0x4C 0xF7 PUSH24 0x598B5332EDC2BA02867BD2B46E36C33C0E5F3D4E51462D7A 0xEF ADDRESS 0xD1 PUSH5 0x736F6C6343 STOP ADDMOD XOR STOP CALLER "},"methodIdentifiers":{"activateCourse(bytes32)":"39262572","deactivateCourse(bytes32)":"935d7e6d","getContractOwner()":"442890d5","getCourseByHash(bytes32)":"62e4e6ac","getCourseCount()":"96cfda06","getCourseHashAtIndex(uint256)":"6d11290b","purchaseCourse(bytes16,bytes32)":"d76821cb","repurchaseCourse(bytes32)":"6136e1eb","transferOwnership(address)":"f2fde38b"}}}}}