{
  "contractName": "CourseMarketplace",
  "abi": [
    {
      "inputs": [],
      "stateMutability": "nonpayable",
      "type": "constructor"
    },
    {
      "inputs": [],
      "name": "CourseHasOwner",
      "type": "error"
    },
    {
      "inputs": [],
      "name": "CourseIsNotCreated",
      "type": "error"
    },
    {
      "inputs": [],
      "name": "InvalidState",
      "type": "error"
    },
    {
      "inputs": [],
      "name": "OnlyOwner",
      "type": "error"
    },
    {
      "inputs": [],
      "name": "SenderIsNotCourseOwner",
      "type": "error"
    },
    {
      "inputs": [
        {
          "internalType": "bytes16",
          "name": "courseId",
          "type": "bytes16"
        },
        {
          "internalType": "bytes32",
          "name": "proof",
          "type": "bytes32"
        }
      ],
      "name": "purchaseCourse",
      "outputs": [],
      "stateMutability": "payable",
      "type": "function"
    },
    {
      "inputs": [
        {
          "internalType": "bytes32",
          "name": "courseHash",
          "type": "bytes32"
        }
      ],
      "name": "repurchaseCourse",
      "outputs": [],
      "stateMutability": "payable",
      "type": "function"
    },
    {
      "inputs": [
        {
          "internalType": "bytes32",
          "name": "courseHash",
          "type": "bytes32"
        }
      ],
      "name": "activateCourse",
      "outputs": [],
      "stateMutability": "nonpayable",
      "type": "function"
    },
    {
      "inputs": [
        {
          "internalType": "bytes32",
          "name": "courseHash",
          "type": "bytes32"
        }
      ],
      "name": "deactivateCourse",
      "outputs": [],
      "stateMutability": "nonpayable",
      "type": "function"
    },
    {
      "inputs": [
        {
          "internalType": "address",
          "name": "newOwner",
          "type": "address"
        }
      ],
      "name": "transferOwnership",
      "outputs": [],
      "stateMutability": "nonpayable",
      "type": "function"
    },
    {
      "inputs": [],
      "name": "getCourseCount",
      "outputs": [
        {
          "internalType": "uint256",
          "name": "",
          "type": "uint256"
        }
      ],
      "stateMutability": "view",
      "type": "function"
    },
    {
      "inputs": [
        {
          "internalType": "uint256",
          "name": "index",
          "type": "uint256"
        }
      ],
      "name": "getCourseHashAtIndex",
      "outputs": [
        {
          "internalType": "bytes32",
          "name": "",
          "type": "bytes32"
        }
      ],
      "stateMutability": "view",
      "type": "function"
    },
    {
      "inputs": [
        {
          "internalType": "bytes32",
          "name": "courseHash",
          "type": "bytes32"
        }
      ],
      "name": "getCourseByHash",
      "outputs": [
        {
          "components": [
            {
              "internalType": "uint256",
              "name": "id",
              "type": "uint256"
            },
            {
              "internalType": "uint256",
              "name": "price",
              "type": "uint256"
            },
            {
              "internalType": "bytes32",
              "name": "proof",
              "type": "bytes32"
            },
            {
              "internalType": "address",
              "name": "owner",
              "type": "address"
            },
            {
              "internalType": "enum CourseMarketplace.State",
              "name": "state",
              "type": "uint8"
            }
          ],
          "internalType": "struct CourseMarketplace.Course",
          "name": "",
          "type": "tuple"
        }
      ],
      "stateMutability": "view",
      "type": "function"
    },
    {
      "inputs": [],
      "name": "getContractOwner",
      "outputs": [
        {
          "internalType": "address",
          "name": "",
          "type": "address"
        }
      ],
      "stateMutability": "view",
      "type": "function"
    }
  ],
  "bytecode": "0x608060405234801561000f575f80fd5b5061001f3361002460201b60201c565b610067565b8060035f6101000a81548173ffffffffffffffffffffffffffffffffffffffff021916908373ffffffffffffffffffffffffffffffffffffffff16021790555050565b6110cc806100745f395ff3fe608060405260043610610085575f3560e01c80636d11290b116100585780636d11290b14610133578063935d7e6d1461016f57806396cfda0614610197578063d76821cb146101c1578063f2fde38b146101dd57610085565b80633926257214610089578063442890d5146100b15780636136e1eb146100db57806362e4e6ac146100f7575b5f80fd5b348015610094575f80fd5b506100af60048036038101906100aa9190610ba1565b610205565b005b3480156100bc575f80fd5b506100c5610362565b6040516100d29190610c0b565b60405180910390f35b6100f560048036038101906100f09190610ba1565b61038a565b005b348015610102575f80fd5b5061011d60048036038101906101189190610ba1565b6104c2565b60405161012a9190610d33565b60405180910390f35b34801561013e575f80fd5b5061015960048036038101906101549190610d76565b610599565b6040516101669190610db0565b60405180910390f35b34801561017a575f80fd5b5061019560048036038101906101909190610ba1565b6105b3565b005b3480156101a2575f80fd5b506101ab6107e9565b6040516101b89190610dd8565b60405180910390f35b6101db60048036038101906101d69190610e46565b6107f2565b005b3480156101e8575f80fd5b5061020360048036038101906101fe9190610eae565b610987565b005b61020d610362565b73ffffffffffffffffffffffffffffffffffffffff163373ffffffffffffffffffffffffffffffffffffffff1614610271576040517f5fc483c500000000000000000000000000000000000000000000000000000000815260040160405180910390fd5b61027a816109ff565b6102b0576040517f4db0c48300000000000000000000000000000000000000000000000000000000815260040160405180910390fd5b5f805f8381526020019081526020015f2090505f60028111156102d6576102d5610c5a565b5b8160030160149054906101000a900460ff1660028111156102fa576102f9610c5a565b5b14610331576040517fbaf3f0f700000000000000000000000000000000000000000000000000000000815260040160405180910390fd5b60018160030160146101000a81548160ff0219169083600281111561035957610358610c5a565b5b02179055505050565b5f60035f9054906101000a900473ffffffffffffffffffffffffffffffffffffffff16905090565b610393816109ff565b6103c9576040517f4db0c48300000000000000000000000000000000000000000000000000000000815260040160405180910390fd5b6103d281610a69565b610408576040517fcce31cc400000000000000000000000000000000000000000000000000000000815260040160405180910390fd5b5f805f8381526020019081526020015f20905060028081111561042e5761042d610c5a565b5b8160030160149054906101000a900460ff16600281111561045257610451610c5a565b5b14610489576040517fbaf3f0f700000000000000000000000000000000000000000000000000000000815260040160405180910390fd5b5f8160030160146101000a81548160ff021916908360028111156104b0576104af610c5a565b5b02179055503481600101819055505050565b6104ca610b15565b5f808381526020019081526020015f206040518060a00160405290815f82015481526020016001820154815260200160028201548152602001600382015f9054906101000a900473ffffffffffffffffffffffffffffffffffffffff1673ffffffffffffffffffffffffffffffffffffffff1673ffffffffffffffffffffffffffffffffffffffff1681526020016003820160149054906101000a900460ff16600281111561057c5761057b610c5a565b5b600281111561058e5761058d610c5a565b5b815250509050919050565b5f60015f8381526020019081526020015f20549050919050565b6105bb610362565b73ffffffffffffffffffffffffffffffffffffffff163373ffffffffffffffffffffffffffffffffffffffff161461061f576040517f5fc483c500000000000000000000000000000000000000000000000000000000815260040160405180910390fd5b610628816109ff565b61065e576040517f4db0c48300000000000000000000000000000000000000000000000000000000815260040160405180910390fd5b5f805f8381526020019081526020015f2090505f600281111561068457610683610c5a565b5b8160030160149054906101000a900460ff1660028111156106a8576106a7610c5a565b5b146106df576040517fbaf3f0f700000000000000000000000000000000000000000000000000000000815260040160405180910390fd5b5f816003015f9054906101000a900473ffffffffffffffffffffffffffffffffffffffff1673ffffffffffffffffffffffffffffffffffffffff16826001015460405161072b90610f06565b5f6040518083038185875af1925050503d805f8114610765576040519150601f19603f3d011682016040523d82523d5f602084013e61076a565b606091505b50509050806107ae576040517f08c379a00000000000000000000000000000000000000000000000000000000081526004016107a590610f74565b60405180910390fd5b60028260030160146101000a81548160ff021916908360028111156107d6576107d5610c5a565b5b02179055505f8260010181905550505050565b5f600254905090565b5f8233604051602001610806929190610ff7565b60405160208183030381529060405280519060200120905061082781610a69565b1561085e576040517fb0fc2d9700000000000000000000000000000000000000000000000000000000815260040160405180910390fd5b5f60025f8154809291906108719061104f565b9190505590508160015f8381526020019081526020015f20819055506040518060a001604052808281526020013481526020018481526020013373ffffffffffffffffffffffffffffffffffffffff1681526020015f60028111156108d9576108d8610c5a565b5b8152505f808481526020019081526020015f205f820151815f015560208201518160010155604082015181600201556060820151816003015f6101000a81548173ffffffffffffffffffffffffffffffffffffffff021916908373ffffffffffffffffffffffffffffffffffffffff16021790555060808201518160030160146101000a81548160ff0219169083600281111561097957610978610c5a565b5b021790555090505050505050565b61098f610362565b73ffffffffffffffffffffffffffffffffffffffff163373ffffffffffffffffffffffffffffffffffffffff16146109f3576040517f5fc483c500000000000000000000000000000000000000000000000000000000815260040160405180910390fd5b6109fc81610ad2565b50565b5f8073ffffffffffffffffffffffffffffffffffffffff165f808481526020019081526020015f206003015f9054906101000a900473ffffffffffffffffffffffffffffffffffffffff1673ffffffffffffffffffffffffffffffffffffffff1614159050919050565b5f3373ffffffffffffffffffffffffffffffffffffffff165f808481526020019081526020015f206003015f9054906101000a900473ffffffffffffffffffffffffffffffffffffffff1673ffffffffffffffffffffffffffffffffffffffff16149050919050565b8060035f6101000a81548173ffffffffffffffffffffffffffffffffffffffff021916908373ffffffffffffffffffffffffffffffffffffffff16021790555050565b6040518060a001604052805f81526020015f81526020015f80191681526020015f73ffffffffffffffffffffffffffffffffffffffff1681526020015f6002811115610b6457610b63610c5a565b5b81525090565b5f80fd5b5f819050919050565b610b8081610b6e565b8114610b8a575f80fd5b50565b5f81359050610b9b81610b77565b92915050565b5f60208284031215610bb657610bb5610b6a565b5b5f610bc384828501610b8d565b91505092915050565b5f73ffffffffffffffffffffffffffffffffffffffff82169050919050565b5f610bf582610bcc565b9050919050565b610c0581610beb565b82525050565b5f602082019050610c1e5f830184610bfc565b92915050565b5f819050919050565b610c3681610c24565b82525050565b610c4581610b6e565b82525050565b610c5481610beb565b82525050565b7f4e487b71000000000000000000000000000000000000000000000000000000005f52602160045260245ffd5b60038110610c9857610c97610c5a565b5b50565b5f819050610ca882610c87565b919050565b5f610cb782610c9b565b9050919050565b610cc781610cad565b82525050565b60a082015f820151610ce15f850182610c2d565b506020820151610cf46020850182610c2d565b506040820151610d076040850182610c3c565b506060820151610d1a6060850182610c4b565b506080820151610d2d6080850182610cbe565b50505050565b5f60a082019050610d465f830184610ccd565b92915050565b610d5581610c24565b8114610d5f575f80fd5b50565b5f81359050610d7081610d4c565b92915050565b5f60208284031215610d8b57610d8a610b6a565b5b5f610d9884828501610d62565b91505092915050565b610daa81610b6e565b82525050565b5f602082019050610dc35f830184610da1565b92915050565b610dd281610c24565b82525050565b5f602082019050610deb5f830184610dc9565b92915050565b5f7fffffffffffffffffffffffffffffffff0000000000000000000000000000000082169050919050565b610e2581610df1565b8114610e2f575f80fd5b50565b5f81359050610e4081610e1c565b92915050565b5f8060408385031215610e5c57610e5b610b6a565b5b5f610e6985828601610e32565b9250506020610e7a85828601610b8d565b9150509250929050565b610e8d81610beb565b8114610e97575f80fd5b50565b5f81359050610ea881610e84565b92915050565b5f60208284031215610ec357610ec2610b6a565b5b5f610ed084828501610e9a565b91505092915050565b5f81905092915050565b50565b5f610ef15f83610ed9565b9150610efc82610ee3565b5f82019050919050565b5f610f1082610ee6565b9150819050919050565b5f82825260208201905092915050565b7f5472616e73666572206661696c656421000000000000000000000000000000005f82015250565b5f610f5e601083610f1a565b9150610f6982610f2a565b602082019050919050565b5f6020820190508181035f830152610f8b81610f52565b9050919050565b5f819050919050565b610fac610fa782610df1565b610f92565b82525050565b5f8160601b9050919050565b5f610fc882610fb2565b9050919050565b5f610fd982610fbe565b9050919050565b610ff1610fec82610beb565b610fcf565b82525050565b5f6110028285610f9b565b6010820191506110128284610fe0565b6014820191508190509392505050565b7f4e487b71000000000000000000000000000000000000000000000000000000005f52601160045260245ffd5b5f61105982610c24565b91507fffffffffffffffffffffffffffffffffffffffffffffffffffffffffffffffff820361108b5761108a611022565b5b60018201905091905056fea26469706673582212203e152435b30a7e7580b6600f4f37ec5d1860c68a1ee89ae3cca31e420c77a3bf64736f6c63430008180033",
  "immutableReferences": {},
  "source": "// SPDX-License-Identifier: MIT\npragma solidity >=0.4.22 <0.9.0;\n\ncontract CourseMarketplace {\n    enum State {\n        Purchased,\n        Activated,\n        Deactivated\n    }\n    struct Course {\n        uint id;\n        uint price;\n        bytes32 proof;\n        address owner;\n        State state;\n    }\n    mapping(bytes32 => Course) private ownedCourses;\n    mapping(uint => bytes32) private ownedCourseHash;\n    uint private totalOwnedCourses;\n    address payable private owner;\n\n    constructor() {\n        setContractOwner(msg.sender);\n    }\n\n    error InvalidState();\n    error CourseIsNotCreated();\n    error CourseHasOwner();\n    error SenderIsNotCourseOwner();\n    error OnlyOwner();\n    modifier onlyOwner() {\n        if (msg.sender != getContractOwner()) {\n            revert OnlyOwner();\n        }\n        _;\n    }\n\n    function purchaseCourse(bytes16 courseId, bytes32 proof) external payable {\n        bytes32 courseHash = keccak256(abi.encodePacked(courseId, msg.sender));\n        if (hasCourseOwnership(courseHash)) {\n            revert CourseHasOwner();\n        }\n        uint id = totalOwnedCourses++;\n        ownedCourseHash[id] = courseHash;\n        ownedCourses[courseHash] = Course({\n            id: id,\n            price: msg.value,\n            proof: proof,\n            owner: msg.sender,\n            state: State.Purchased\n        });\n    }\n\n    function repurchaseCourse(bytes32 courseHash) external payable {\n        if (!isCourseCreated(courseHash)) {\n            revert CourseIsNotCreated();\n        }\n        if (!hasCourseOwnership(courseHash)) {\n            revert SenderIsNotCourseOwner();\n        }\n        Course storage course = ownedCourses[courseHash];\n        if (course.state != State.Deactivated) {\n            revert InvalidState();\n        }\n        course.state = State.Purchased;\n        course.price = msg.value;\n    }\n\n    function activateCourse(bytes32 courseHash) external onlyOwner {\n        if (!isCourseCreated(courseHash)) {\n            revert CourseIsNotCreated();\n        }\n        Course storage course = ownedCourses[courseHash];\n        if (course.state != State.Purchased) {\n            revert InvalidState();\n        }\n        course.state = State.Activated;\n    }\n\n    function deactivateCourse(bytes32 courseHash) external onlyOwner {\n        if (!isCourseCreated(courseHash)) {\n            revert CourseIsNotCreated();\n        }\n        Course storage course = ownedCourses[courseHash];\n        if (course.state != State.Purchased) {\n            revert InvalidState();\n        }\n        (bool success, ) = course.owner.call{value: course.price}(\"\");\n        require(success, \"Transfer failed!\");\n        course.state = State.Deactivated;\n        course.price = 0;\n    }\n\n    function transferOwnership(address newOwner) external onlyOwner {\n        setContractOwner(newOwner);\n    }\n\n    function getCourseCount() external view returns (uint) {\n        return totalOwnedCourses;\n    }\n\n    function getCourseHashAtIndex(uint index) external view returns (bytes32) {\n        return ownedCourseHash[index];\n    }\n\n    function getCourseByHash(\n        bytes32 courseHash\n    ) external view returns (Course memory) {\n        return ownedCourses[courseHash];\n    }\n\n    function getContractOwner() public view returns (address) {\n        return owner;\n    }\n\n    function setContractOwner(address newOwner) private {\n        owner = payable(newOwner);\n    }\n\n    function isCourseCreated(bytes32 courseHash) private view returns (bool) {\n        return\n            ownedCourses[courseHash].owner !=\n            0x0000000000000000000000000000000000000000;\n    }\n\n    function hasCourseOwnership(\n        bytes32 courseHash\n    ) private view returns (bool) {\n        return ownedCourses[courseHash].owner == msg.sender;\n    }\n}\n",
  "sourcePath": "C:\\Users\\Harshit Khattar\\Desktop\\l2nexa\\contracts\\CourseMarketplace.sol",
  "compiler": {
    "name": "solc",
    "version": "0.8.24+commit.e11b9ed9.Emscripten.clang"
  },
  "schemaVersion": "3.4.16",
  "updatedAt": "2024-04-30T17:34:04.999Z",
  "devdoc": {
    "kind": "dev",
    "methods": {},
    "version": 1
  },
  "userdoc": {
    "kind": "user",
    "methods": {},
    "version": 1
  }
}